:1000000029C000002FC000002DC000002BC0000040
:1000100029C0000027C0000025C0000023C0000048
:1000200021C000001FC000001DC000001BC0000058
:1000300019C0000017C0000015C0000013C0000068
:1000400011C000000FC000000DC000000BC0000078
:1000500009C0000011241FBECFE5D8E0DEBFCDBF30
:1000600011D016C0CDCFCF93DF93CDB7DEB784E3E9
:1000700090E025E5FC01208385E390E02FEFFC0173
:100080002083FFCFCF93DF93CDB7DEB7ECDFFFCF79
:04009000F894FFCF12
:00000001FF
